{
  "contractName": "Casino",
  "abi": [
    {
      "constant": true,
      "inputs": [],
      "name": "numberOfBets",
      "outputs": [
        {
          "name": "",
          "type": "uint256"
        }
      ],
      "payable": false,
      "stateMutability": "view",
      "type": "function"
    },
    {
      "constant": true,
      "inputs": [
        {
          "name": "",
          "type": "address"
        }
      ],
      "name": "playerInfo",
      "outputs": [
        {
          "name": "amountBet",
          "type": "uint256"
        },
        {
          "name": "numberSelected",
          "type": "uint256"
        }
      ],
      "payable": false,
      "stateMutability": "view",
      "type": "function"
    },
    {
      "constant": true,
      "inputs": [],
      "name": "owner",
      "outputs": [
        {
          "name": "",
          "type": "address"
        }
      ],
      "payable": false,
      "stateMutability": "view",
      "type": "function"
    },
    {
      "constant": true,
      "inputs": [],
      "name": "minimumBet",
      "outputs": [
        {
          "name": "",
          "type": "uint256"
        }
      ],
      "payable": false,
      "stateMutability": "view",
      "type": "function"
    },
    {
      "constant": true,
      "inputs": [],
      "name": "maxAmountOfBets",
      "outputs": [
        {
          "name": "",
          "type": "uint256"
        }
      ],
      "payable": false,
      "stateMutability": "view",
      "type": "function"
    },
    {
      "constant": true,
      "inputs": [
        {
          "name": "",
          "type": "uint256"
        }
      ],
      "name": "players",
      "outputs": [
        {
          "name": "",
          "type": "address"
        }
      ],
      "payable": false,
      "stateMutability": "view",
      "type": "function"
    },
    {
      "constant": true,
      "inputs": [],
      "name": "totalBet",
      "outputs": [
        {
          "name": "",
          "type": "uint256"
        }
      ],
      "payable": false,
      "stateMutability": "view",
      "type": "function"
    },
    {
      "inputs": [
        {
          "name": "_minimumBet",
          "type": "uint256"
        }
      ],
      "payable": false,
      "stateMutability": "nonpayable",
      "type": "constructor"
    },
    {
      "constant": false,
      "inputs": [],
      "name": "kill",
      "outputs": [],
      "payable": false,
      "stateMutability": "nonpayable",
      "type": "function"
    },
    {
      "constant": true,
      "inputs": [
        {
          "name": "_player",
          "type": "address"
        }
      ],
      "name": "checkPlayerExists",
      "outputs": [
        {
          "name": "",
          "type": "bool"
        }
      ],
      "payable": false,
      "stateMutability": "view",
      "type": "function"
    },
    {
      "constant": false,
      "inputs": [
        {
          "name": "numberSelected",
          "type": "uint256"
        }
      ],
      "name": "bet",
      "outputs": [],
      "payable": true,
      "stateMutability": "payable",
      "type": "function"
    },
    {
      "constant": false,
      "inputs": [],
      "name": "generateNumberWinner",
      "outputs": [],
      "payable": false,
      "stateMutability": "nonpayable",
      "type": "function"
    },
    {
      "constant": false,
      "inputs": [
        {
          "name": "winningNumber",
          "type": "uint256"
        }
      ],
      "name": "distributePrizes",
      "outputs": [],
      "payable": false,
      "stateMutability": "nonpayable",
      "type": "function"
    }
  ],
  "bytecode": "0x6080604052606460045534801561001557600080fd5b50604051602080610a6b83398101806040528101908080519060200190929190505050336000806101000a81548173ffffffffffffffffffffffffffffffffffffffff021916908373ffffffffffffffffffffffffffffffffffffffff16021790555060008114151561008a57806001819055505b506109d18061009a6000396000f3006080604052600436106100ba576000357c0100000000000000000000000000000000000000000000000000000000900463ffffffff1680630a50e361146100bf5780632ca8c6d3146100d65780634081d9161461010157806341c0e1b51461015c5780634b114691146101735780636ca3fc3b146101d15780637365870b146101fe5780638da5cb5b1461021e578063c38a8afd14610275578063e08a96cd146102a0578063f71d96cb146102cb578063fe5e185314610338575b600080fd5b3480156100cb57600080fd5b506100d4610363565b005b3480156100e257600080fd5b506100eb610383565b6040518082815260200191505060405180910390f35b34801561010d57600080fd5b50610142600480360381019080803573ffffffffffffffffffffffffffffffffffffffff169060200190929190505050610389565b604051808215151515815260200191505060405180910390f35b34801561016857600080fd5b5061017161042c565b005b34801561017f57600080fd5b506101b4600480360381019080803573ffffffffffffffffffffffffffffffffffffffff1690602001909291905050506104bd565b604051808381526020018281526020019250505060405180910390f35b3480156101dd57600080fd5b506101fc600480360381019080803590602001909291905050506104e1565b005b61021c60048036038101908080359060200190929190505050610727565b005b34801561022a57600080fd5b50610233610899565b604051808273ffffffffffffffffffffffffffffffffffffffff1673ffffffffffffffffffffffffffffffffffffffff16815260200191505060405180910390f35b34801561028157600080fd5b5061028a6108be565b6040518082815260200191505060405180910390f35b3480156102ac57600080fd5b506102b56108c4565b6040518082815260200191505060405180910390f35b3480156102d757600080fd5b506102f6600480360381019080803590602001909291905050506108ca565b604051808273ffffffffffffffffffffffffffffffffffffffff1673ffffffffffffffffffffffffffffffffffffffff16815260200191505060405180910390f35b34801561034457600080fd5b5061034d610908565b6040518082815260200191505060405180910390f35b60006001600a4381151561037357fe5b06019050610380816104e1565b50565b60035481565b600080600090505b600580549050811015610421578273ffffffffffffffffffffffffffffffffffffffff166005828154811015156103c457fe5b9060005260206000200160009054906101000a900473ffffffffffffffffffffffffffffffffffffffff1673ffffffffffffffffffffffffffffffffffffffff1614156104145760019150610426565b8080600101915050610391565b600091505b50919050565b6000809054906101000a900473ffffffffffffffffffffffffffffffffffffffff1673ffffffffffffffffffffffffffffffffffffffff163373ffffffffffffffffffffffffffffffffffffffff1614156104bb576000809054906101000a900473ffffffffffffffffffffffffffffffffffffffff1673ffffffffffffffffffffffffffffffffffffffff16ff5b565b60066020528060005260406000206000915090508060000154908060010154905082565b6104e9610930565b6000806000806000809450600093505b60058054905084101561063a5760058481548110151561051557fe5b9060005260206000200160009054906101000a900473ffffffffffffffffffffffffffffffffffffffff16925086600660008573ffffffffffffffffffffffffffffffffffffffff1673ffffffffffffffffffffffffffffffffffffffff1681526020019081526020016000206001015414156105db5782868660648110151561059b57fe5b602002019073ffffffffffffffffffffffffffffffffffffffff16908173ffffffffffffffffffffffffffffffffffffffff168152505084806001019550505b600660008473ffffffffffffffffffffffffffffffffffffffff1673ffffffffffffffffffffffffffffffffffffffff1681526020019081526020016000206000808201600090556001820160009055505083806001019450506104f9565b60006005816106499190610954565b508460025481151561065757fe5b049150600090505b8481101561071657600073ffffffffffffffffffffffffffffffffffffffff16868260648110151561068d57fe5b602002015173ffffffffffffffffffffffffffffffffffffffff161415156107095785816064811015156106bd57fe5b602002015173ffffffffffffffffffffffffffffffffffffffff166108fc839081150290604051600060405180830381858888f19350505050158015610707573d6000803e3d6000fd5b505b808060010191505061065f565b61071e61090e565b50505050505050565b61073033610389565b15151561073c57600080fd5b6001811015801561074e5750600a8111155b151561075957600080fd5b600154341015151561076a57600080fd5b34600660003373ffffffffffffffffffffffffffffffffffffffff1673ffffffffffffffffffffffffffffffffffffffff1681526020019081526020016000206000018190555080600660003373ffffffffffffffffffffffffffffffffffffffff1673ffffffffffffffffffffffffffffffffffffffff1681526020019081526020016000206001018190555060036000815480929190600101919050555060053390806001815401808255809150509060018203906000526020600020016000909192909190916101000a81548173ffffffffffffffffffffffffffffffffffffffff021916908373ffffffffffffffffffffffffffffffffffffffff160217905550503460026000828254019250508190555060045460035410151561089657610895610363565b5b50565b6000809054906101000a900473ffffffffffffffffffffffffffffffffffffffff1681565b60015481565b60045481565b6005818154811015156108d957fe5b906000526020600020016000915054906101000a900473ffffffffffffffffffffffffffffffffffffffff1681565b60025481565b600060058161091d9190610954565b5060006002819055506000600381905550565b610c8060405190810160405280606490602082028038833980820191505090505090565b81548183558181111561097b5781836000526020600020918201910161097a9190610980565b5b505050565b6109a291905b8082111561099e576000816000905550600101610986565b5090565b905600a165627a7a723058204a21b7e4bf7f508210b252a9c321687802e019da83f2628361011e33d0eb2b3e0029",
  "source": "pragma solidity ^0.4.0;\n\ncontract Casino {\n    address public owner;\n    uint256 public minimumBet;\n    uint256 public totalBet;\n    uint256 public numberOfBets;\n    uint256 public maxAmountOfBets = 100;\n    address[] public players;\n\n    struct Player {\n        uint256 amountBet;\n        uint256 numberSelected;\n    }\n    // maps user address to player info\n    mapping(address => Player) public playerInfo;\n\n    constructor (uint256 _minimumBet) public {\n        owner = msg.sender;\n        if(_minimumBet != 0) minimumBet = _minimumBet;\n    }\n    function kill() public {\n        if(msg.sender == owner) selfdestruct(owner);\n    }\n\n    function checkPlayerExists(address _player) public view returns(bool) {\n        for(uint256 i = 0; i < players.length; i ++) {\n            if(players[i] == _player) return true;\n        }\n        return false;\n    }\n    function bet(uint numberSelected) public payable {\n        require(!checkPlayerExists(msg.sender));\n        require(numberSelected >= 1 && numberSelected <= 10);\n        require(msg.value >= minimumBet);\n\n        playerInfo[msg.sender].amountBet = msg.value;\n        playerInfo[msg.sender].numberSelected = numberSelected;\n        numberOfBets++;\n        players.push(msg.sender);\n        totalBet += msg.value;\n        if(numberOfBets >= maxAmountOfBets) generateNumberWinner();\n    }\n    function generateNumberWinner() public {\n        uint256 numberGenerated = block.number % 10 + 1;\n        distributePrizes(numberGenerated);\n    }\n    function distributePrizes(uint winningNumber) public {\n        address[100] memory winners;\n        uint256 count = 0;\n        for(uint256 i = 0; i < players.length; i++) {\n            address playerAddress = players[i];\n            if (playerInfo[playerAddress].numberSelected == winningNumber)  {\n                winners[count] = playerAddress;\n                count++;\n            }\n            delete playerInfo[playerAddress];\n        }\n        players.length = 0;\n        uint256 winnerEtherAmount = totalBet / count;\n        for(uint256 j = 0; j < count; j++) {\n            if(winners[j] != address(0)) // check that the address in this fix array is not empty\n            winners[j].transfer(winnerEtherAmount);\n        }\n        resetData();\n    }\n    function resetData() internal {\n        players.length = 0;\n        totalBet = 0;\n        numberOfBets = 0;\n    }\n}",
  "sourcePath": "/home/crake/dev/casino-ethereum/contracts/Casino.sol",
  "compiler": {
    "name": "solc",
    "version": "0.4.24+commit.e67f0147.Emscripten.clang"
  },
  "schemaVersion": "2.0.1",
  "updatedAt": "2018-10-09T05:31:49.536Z"
}